:1000000000800020BD010000691B00007304000097
:10001000351B0000351B0000351B0000351B0000A0
:10002000351B0000351B0000351B0000691B00005C
:10003000691B0000351B0000691B0000251B000028
:10004000691B0000691B0000691B0000691B0000A0
:10005000691B0000691B0000691B0000691B000090
:10006000691B0000691B0000691B0000691B000080
:10007000691B0000691B0000691B0000691B000070
:10008000691B0000691B0000691B0000691B000060
:10009000691B0000691B0000691B0000691B000050
:1000A000691B0000691B0000691B0000691B000040
:1000B000691B0000691B0000691B0000691B000030
:1000C000691B0000691B0000691B0000691B000020
:1000D000691B0000691B0000691B0000691B000010
:1000E000691B0000691B0000691B0000691B000000
:1000F000691B0000AD1E0000691B0000691B0000A9
:10010000691B0000691B0000691B0000691B0000DF
:10011000691B0000691B0000691B0000691B0000CF
:10012000691B0000691B0000691B0000691B0000BF
:10013000691B0000691B0000691B0000691B0000AF
:10014000691B0000691B0000691B0000691B00009F
:10015000691B0000691B0000691B0000691B00008F
:10016000691B000015110000691B0000691B0000DD
:10017000691B0000691B0000691B0000691B00006F
:10018000691B0000691B0000691B0000691B00005F
:10019000691B0000691B0000691B0000691B00004F
:1001A000691B0000691B0000691B0000691B00003F
:1001B000691B0000691B0000691B0000574B4CF2D3
:1001C000205210B51A804DF628121A8000BF00BFC9
:1001D00001F0CEFC524B4FF010621A60514A9A6007
:1001E000514ADA60514A136813F4807301BF5049D1
:1001F0000B604FF4A85313604E4B1A78110748BF99
:100200001A784D4944BF42F008021A704B4B2A221B
:100210001A704B4B4B4A8B4277D34B4B4B4A0021C6
:10022000934277D34A4A4B4811460023013350F892
:10023000044B41F8044B6F2BF8D1474B47498020C2
:1002400003F8010B8B42FBD1454B1A60454B0A2248
:100250001A70A3F5805324225A70A0221A709A793A
:100260009207FCD59A79D406FCD43F4B19469A796B
:1002700002F00C02082AFAD103221A7140225A71A4
:100280008B799806FCD5384B9A795106FCD5374ABC
:10029000374911600221516020221A70324A937945
:1002A00003F00C030C2BFAD1324B334A1A60334B58
:1002B0004BF67F321A6000225A60072243F8042C62
:1002C0002F4AC3F80C2D62B601F0E8FC184B1B68EE
:1002D000DA0705D52B4801F09DFC2B4B2B4A1A6001
:1002E0002B4B1B785B0609D5274C284B22689A427A
:1002F00004D1244801F08EFC0023236001F07AFE33
:1003000001F03CFC00F041F9FEE752F8040B43F821
:10031000040B80E743F8041B82E700BF0E20054072
:1003200030800440823F04000100002B10D00340C5
:1003300014D0034002D00740B084FF1F00E0074004
:10034000BC83FF1F68370000B084FF1F2417002004
:100350000082FF1F0000000000E400E05FE400E016
:1003600008ED00E000500640004006404480044094
:100370000000031104800440C010050014E000E0F8
:100380000000202000DD68501CE00340A5C3945A03
:1003900000F00740FFFFFFFFFFFFFFFFFFFFFFFF32
:1003A000FFFFFFFFFFFFFFFFFFFFFFFFFFFFFFFF5D
:1003B000FFFFFFFFFFFFFFFFFFFFFFFFFFFFFFFF4D
:1003C000FFFFFFFFFFFFFFFFFFFFFFFFFFFFFFFF3D
:1003D000FFFFFFFFFFFFFFFFFFFFFFFFFFFFFFFF2D
:1003E000FFFFFFFFFFFFFFFFFFFFFFFFFFFFFFFF1D
:1003F000FFFFFFFFFFFFFFFFFFFFFFFFFFFFFFFF0D
:10040000FFFFFFFFFFFFFFFFFFFFFFFFFEFFFFFFFD
:1004100010B5054C237833B9044B13B10448AFF33E
:1004200000800123237010BDB084FF1F0000000076
:100430006837000008B5034B1BB103490348AFF30D
:10044000008008BD00000000B484FF1F6837000072
:100450001023C3EB8312B1FBF2F2B2F5803F05D259
:1004600003703F2343704280002070471033DBB29B
:10047000EFE71EF0040F0CBFEFF30880EFF30980E5
:1004800000F000B870B504462B4801F08FFD2B48F2
:1004900001F08CFD2A4B1B6859001AD5294B1B68AB
:1004A00013F47F4F4FEA1326C3F3072511D02648D4
:1004B00001F07CFDEA062ED5244801F077FD3306D5
:1004C00004D5234B2348196800F0EEFC1B4801F0CB
:1004D0006DFD2168204800F0E7FC61681F4800F0CE
:1004E000E3FCA1681E4800F0DFFCE1681D4800F055
:1004F000DBFC21691C4800F0D7FC61691B4800F057
:10050000D3FCA1691A4800F0CFFCE1691948BDE8A5
:10051000704000F0C9BC2B0701D51748CDE768072C
:1005200001D51648C9E7A90701D51548C5E7EA0767
:10053000C5D51448C1E700BF5C290000442D000068
:100540002CED00E028ED00E09C290000AA29000025
:1005500038ED00E0302A00003C2A0000482A000064
:10056000542A0000602A00006C2A0000782A00004B
:10057000842A0000902A0000C3290000DD29000021
:10058000F9290000122A00007047FEE7054B1A46C1
:10059000002142F8141BC3E90121DA604FF48052B4
:1005A0001A617047F484FF1F064B10B59A685C68A7
:1005B0000460914228BF11460C44521A5C609A6054
:1005C000084610BDF484FF1F034B702249BA1A700D
:1005D00098709981704700BFBC83FF1F38B50D4CE0
:1005E00023698B420D4612D30A460146E06801F0AA
:1005F000FFF9236821692B442360A3682B44A3607F
:10060000E368491B2B44E3602161002038BD4FF0B3
:10061000FF30FBE7F484FF1F1D2807D8064901229D
:1006200002FA00F3194019B101207047A028FBD04D
:10063000024B1868704700BF09000420F084FF1FB8
:10064000F8B5264D2B6806460F461BB902462448CE
:1006500000F02AFC234A12685268BB19934207D95A
:100660004FF404510520FFF7AFFF4FF0FF3003E0D8
:100670002B68BB4201D10020F8BD15D81A4C29685F
:100680008F42F8D92369B3F5007FF4D3E068314491
:1006900000F0CAFB70B129681448314400F004FC32
:1006A0004FF488510320DEE7114800F0FDFB0021E4
:1006B0000420D8E7236803F500732360A36803F5DB
:1006C0000073A360E36803F50073E3602369A3F597
:1006D000007323612B6801332B60D0E70895FF1F5F
:1006E0009C2A00000C95FF1FF484FF1F0B2B0000B9
:1006F000D12A000010B50479D0F801300848002C48
:1007000008BF4FF480741BBA214600EA9300FFF73C
:1007100097FF0028ACBF60024FF0FF3010BD00BF54
:10072000C0FFFF072DE9F7432A4C2B4D22682B68A9
:1007300013430746884603D10246284800F0B4FB1D
:10074000274A1268526808EB0703934209D94FF40D
:1007500004510520FFF738FF4FF0FF3003B0BDE82C
:10076000F0832368434532D025D91E4800F09CFB16
:1007700000210420EEE7B0F5007F0AD001461A48B8
:1007800000F092FB6B68A8689B1B801B6B60A860E5
:100790001DE0019907EB090000F05AFB40B1216808
:1007A0001248394400F080FB4FF440710320D1E738
:1007B000236801332360D4F80090C84507D94FF46B
:1007C000007101A8FFF7F0FE06460028D3D10020F3
:1007D000C4E700BF0895FF1FF484FF1F252B00000E
:1007E0000C95FF1FD12A0000592B00008A2B000016
:1007F00010B50479D0F801300848002C08BF4FF438
:1008000080741BBA214600EA9300FFF78BFF002893
:10081000ACBF60024FF0FF3010BD00BFC0FFFF074C
:1008200073B500F0FDFA044600284BD100F0FAFA47
:10083000054601462548264E00F036FB4FF400726F
:100840001146244800F030FB6A021146224800F0AD
:100850002BFB224B224833602A46C3E90045214640
:1008600000F022FB1F4800F01FFB336801A8596805
:10087000FFF7EEFD1C4B05221A701E225A703C2217
:100880009A709DF804201A719DF805205A71022271
:100890009A71BDF80620DC7052BA1A81DC71134BD4
:1008A00011222146184601F0C9FB0A22104BC271E1
:1008B0004FF42051012206201A60FFF785FE2046E2
:1008C00002B070BD4FF0FF34F9E700BFAC2B000061
:1008D0000C95FF1FC22B0000E62B00001095FF1F98
:1008E000042C0000232C0000D084FF1FBC83FF1FBA
:1008F000F084FF1F7FB50E46054680B9BE4800F064
:10090000D3FA29460420FFF75FFEBC4800F0CCFA7A
:100910003146284600F0E4FA4FF0FF30B1E00378AA
:10092000032B01D0122B01D10C2E11D003F0E003C8
:10093000402B2BD006D84BB1202B27D04FF40051A1
:100940000520E0E7A02BF9D10C2E00E0062EF5D112
:10095000AB4B1D60AB4B00221A60FFF717FE2C78E3
:100960002046FFF759FE0028D6D02A2C66D8112C35
:100970000ED80A2C46D9A448214600F095FA3146F3
:10098000284600F0ADFA4FF40051B0E00A2EDEE741
:10099000A4F11203182BEED801A252F823F000BFE5
:1009A000730A00007709000077090000770900004A
:1009B0007709000077090000770900007709000037
:1009C000910A0000870A000077090000CB0B0000A5
:1009D000DD0A0000770900007709000077090000B0
:1009E000770900004D0B000077090000190B00008B
:1009F0007709000077090000FB0A00007709000072
:100A0000610C00000A2CB6D801A353F824F000BFF3
:100A1000CF0B000077090000770900009D0B000054
:100A2000610A0000770900007709000077090000DB
:100A3000F30A000077090000F10B0000A02C9AD106
:100A4000724800F031FAD5F8060000BA082828BF2D
:100A50000820044601466E48FFF7C0FD204610E01E
:100A60006C4800F021FA43F201110320FFF7ACFDBE
:100A700052E7694800F018FA68482421FFF7AEFDF4
:100A8000242004B070BD664800F00EFA0020F8E79C
:100A9000644800F009FA2C79002CF7D0A978624E4E
:100AA00001F03F0103233F29029310D123230421A6
:100AB00002A88DF80830FFF791FD5C482021FFF770
:100AC0008DFDB3689C4238BFB460B068D9E7584820
:100AD000EA7800F0E9F9042102A8F0E7554800F0AF
:100AE000E3F9287910F00100CBD04FF41051052024
:100AF000BCE72846FFF7FEFDC3E7B5F80740D5F889
:100B0000020064BAA4B2214600BAFFF799FD00289A
:100B1000FFF602AF6002B4E7474800F0C5F92B7A50
:100B2000DB0703D5454800F0BFF9DEE7444B1B68FF
:100B30005B68013B1BBA082102930DEB01004FF4E7
:100B400000330393FFF74AFD08209AE73D4800F081
:100B5000ABF90023B5F80740ADF804308DF8063046
:100B6000374B1B685B6804211BBA082502930DEB09
:100B700001004FF0021303938DF80750FFF72EFD8D
:100B800029460DEB0500FFF729FD274B64BA9A684B
:100B9000A4B2944238BF9C60986872E72A4800F07B
:100BA00083F9697811F0010401D02848BBE7284D8A
:100BB00012212846FFF712FD11222146284601F096
:100BC0003DFA0A23EB7112205BE722485CE72248DA
:100BD00000F06AF9214B1B681BB94FF468510220E1
:100BE00044E71B4B187B003818BF0120404248E700
:100BF0002846FFF7FDFD44E7532C0000662C00005B
:100C0000CC84FF1F0895FF1F462E0000A62D000074
:100C1000F92F0000822C00009A2C0000D52F000034
:100C2000AE2C0000C62C0000F484FF1FD084FF1FF0
:100C3000E12C00001C2D0000462D0000652D000059
:100C40000C95FF1F832D0000BE2D0000D82D000045
:100C5000BC83FF1F0E2E00002A2E0000F084FF1F11
:100C6000B5F80740D5F8020064BAA4B2214600BA2C
:100C7000FFF758FD4BE700BFF8B5284B1C682778F5
:100C8000054638460E46FFF7C7FC40B94FF4806171
:100C90000520FFF799FC4FF0FF342046F8BD07F020
:100CA000DF070A2F05D11E4800F0FEF800210420BE
:100CB000EFE71C4B1A68B2F5805F08D23146284630
:100CC000FFF772FC04460028E7D12860E5E79F683B
:100CD000002FF3D1FFF75AFC2178082906D02829E4
:100CE0000DD0114800F0E0F83946E0E72046FFF764
:100CF00001FD041EE2DA0D4800F0D6F8CDE7B4F8A5
:100D00000710D4F8020049BA89B200BAFFF798FC7C
:100D10000028D3DA4FF0FF34EDE700BFCC84FF1F8B
:100D20006C2E0000F484FF1F9C2E0000D12E0000CA
:100D3000184B1B6810B5184C43B94FF4806105205F
:100D4000FFF742FC20686FEA402010BD134B186883
:100D500003780A2B07D02A2B0DD0114800F0A4F8F5
:100D600000210420ECE7FFF743FD00280DDA0D48D1
:100D700000F09AF8E6E7B0F80710D0F8023049BA68
:100D800089B218BAFFF7CEFCEFE7FFF7FFFB206848
:100D90004002DAE7F084FF1F0895FF1FCC84FF1F95
:100DA000F42E00002B2F0000174B1B6810B543B921
:100DB0004FF480610520FFF707FC4FF0FF34204619
:100DC00010BD124B1B681B7803F0DF020A2A06D005
:100DD0000F48194600F068F800210420EBE7FFF700
:100DE000FDFB044618B10B4800F05EF8F4E70A4B2F
:100DF0001B68B3F5805FE2D1FFF79AFF0028DEDAC7
:100E0000064800F051F8D8E7F084FF1FCC84FF1F9C
:100E1000432F0000832F0000F484FF1FA62F000043
:100E2000002070474020704710B50C4606494FF42B
:100E3000007201EB442100F0DBFD0448214600F084
:100E400033F8002010BD00BF1895FF1F09300000C7
:100E500010B5044606484FF4007200EB442000F041
:100E6000C7FD0448214600F01FF8002010BD00BF58
:100E70001895FF1F1F30000070B506460D46002470
:100E8000A54200DC70BD24B1630702D1202000F030
:100E9000B5FF305DA0F120035E2B88BF2E2000F04F
:100EA000ADFF0134ECE7FFFF0FB410B5C2B044ABA7
:100EB0004FF4807153F8042B019302A801F0F2F86B
:100EC000044602A801F072F8FF2C02DD034801F08D
:100ED0006DF842B0BDE8104004B0704734300000F7
:100EE0002DE9FF4707462948DFF8B090DFF8A480D6
:100EF000DFF8A4A00C4601F059F80025AC42ABB2D3
:100F000017D184B114F00F0408BF1024204F00251E
:100F1000C4F11006AE422DDC1E4801F047F8214610
:100F20006846FFF7A9FF1C4801F040F804B0BDE88F
:100F3000F08703F00F0685B1C6B9404601F036F8D8
:100F400010216846FFF798FF504601F02FF8284619
:100F500001F045F8404601F029F804AB1E44785DE5
:100F600006F8100C013501F030F8C7E75A07F1D048
:100F70004846F0E725B16B0702D1202000F03EFF84
:100F8000384601F013F80135C4E700BF38300000DF
:100F9000DF310000E0310000442D0000E1310000AD
:100FA000013880B20E2896BF024B034853F8200048
:100FB00000F0FCBFFC3100003F3000001FB572B6EE
:100FC000164B70221A70164A412111700F2102F837
:100FD000011C80221A701A781206FCD5114B186871
:100FE00062B6114B984238BF0A234FF00A0201A99A
:100FF00038BF584300F0EAFD0C4801A9002211F85F
:10100000014B1346013224B10A2A20F81240F6D1CE
:10101000134601335B00037004B010BD00000240B2
:101020000700024008000240809698002C84FF1FB1
:10103000F0B50C4D0C4E2A680C4C42F0020706EB42
:10104000C70382F00102586023682A60002B14BF96
:10105000C820882040EA014083F0010346F83700A9
:101060002360F0BD1C1500200080FF1F1815002014
:101070000148FFF719BF00BF8C32000008B540F2ED
:10108000413000F059FE1E48FFF70EFFFFF796FFB4
:101090001C4B00221946104601320C2AC1E90000FF
:1010A00001F10801F8D118490A6842F480220A6067
:1010B000164AC3F307211170C3F307411B0E1175C4
:1010C0001376FF2302F81C3C02F8143C02F88C3C17
:1010D000012302F8083C82F8640002F8183C0C4B2B
:1010E00070221A706FF4507213444FF400721A6039
:1010F00003F1C04303F5C82310221A7008BD00BFD6
:10110000B63200000080FF1F348004409C2007405E
:1011100049E400E02DE9F0412E4FDFF8E8803D463C
:101120003B785E07DCB244BF04233B7014F0080632
:1011300014D098F8000028490209C0F3800343EA5C
:101140008203C0F3C00043EA4003244851F8222040
:1011500000EBC300904708232B70E1E7E00721D59F
:101160001F48FFF7A1FE1F491F48204A02230B70AA
:101170001F4B1E60194BC3E9012040321860C3E9C0
:1011800003269E611B4B0D221A701B4AFF2313700E
:101190002B7016741371194B9F221A7001230B7058
:1011A000BDE8F081210604D5124B0D221A70802370
:1011B0002B70A20709D5104F11483E78F6B2314680
:1011C000FFF772FE02233E702B70E30644BF10232C
:1011D0002B70E5E780200740A43300000080FF1F4C
:1011E000FD320000942007408800400020150020B8
:1011F0001C150020C020074088200740842007409D
:101200000E3300009020074010B501460446054803
:10121000FFF74AFE044A12F8243043F0020302F8B2
:10122000243010BD2F330000C02007402DE9F341CA
:101230000168C1F383010929034600F0E2800D290A
:1012400005D0012940F0FE80804A026057E04168E5
:101250007F4A804F804E03C982E803007B491960B2
:101260007E4B7F4900241C619C6101230B60118827
:101270003C60B1F5D06F3480904637D016D8B1F5C8
:10128000817F00F0948007D8802978D082297AD095
:101290007448FFF709FE2FE040F20233994200F054
:1012A0009680B1F5A06FF3D1254639E04FF6A162E3
:1012B000914200F09A800ED8B1F5086F58D0B1F580
:1012C000106FE5D1B8F80250012D15D100F066F984
:1012D000654B1D70E8E74FF621739942D8D1624BF8
:1012E0001B78012BE0D100F08BF9DDE75288B8F8CC
:1012F00004105E4B5D6845B90020FFF785FF5C4B2D
:1013000001221A7002B0BDE8F081188890422DD1F8
:10131000588888422AD1120A032A0CBF2C781C7ADA
:10132000B8F806309C4288BFDCB2402C21462846E3
:1013300028BF4021FFF77CFE0D44611A11F0FF0821
:1013400001D13F2CDBD94146402928BF4021284606
:10135000FFF76EFE0D44A8EB010111F0FF0102D171
:10136000B8F13F0FCBD93D603180C8E70C33C1E7FE
:101370003D4A12788DF804201C4601ADD0E7ADF847
:1013800004400224F9E79388022B02D92046FFF794
:101390003BFF0023B8F80420ADF80430354B13F8B8
:1013A00022309B07EDD501238DF80430E9E713794E
:1013B00003F07F03022B9FD85488002C9CD12D4929
:1013C00011F8232022F0020201F823206CE71379A0
:1013D00003F07F03022B8FD85488002C8CD1254931
:1013E00011F8232042F00202EEE71F4B1B78012B7D
:1013F000D9B27FF459AF01A88DF80440FFF718FE69
:1014000052E7144D2C688CB1134F3E88402E314664
:10141000204628BF4021FFF70BFE0C44711A89B209
:10142000398011B93F2E98BF00242C60084B1A88D0
:10143000B2F5A06F7FF463AF00225A709A780E4B1A
:101440001A705CE70D48FFF72FFD58E7C800400011
:10145000A8150020A0150020A41500200080FF1F63
:10146000181500204D330000B01500203832000060
:1014700094200740C0200740982007408733000091
:101480004029F0B403D9F0BC0E48FFF70DBD0E4D56
:101490000E4E2A680E4C42F00A0706EBC70382F094
:1014A0000102586023682A60002B14BFC8208820DE
:1014B00040EA014183F0010346F837102360F0BC95
:1014C000704700BFE4330000701600200080FF1F4B
:1014D0006C16002070B5104D0C46A968A142064656
:1014E00003D00E48091BFFF7DFFC0D48A9686A68A6
:1014F00042605523037053234370C370094B067336
:1015000003220C1B1A704221817084600D21BDE8FA
:101510007040FFF7B5BF00BFC0150020FA330000D0
:10152000DF1500207416002037B5402101A8FFF711
:10153000A3FB011E154D164C0FDA1648FFF7B4FC3D
:10154000AA6823689A4202D90220FFF75DFE21684B
:101550000120FFF7BFFF03B030BDAB68226807D1A1
:10156000934202D90220FFF74FFE21680020F0E7E6
:101570009B1A8B4205DA0848FFF796FCA968206899
:10158000091A0198FFF77CFFE5E700BFC0150020AE
:10159000BC150020243400003A34000008B50E4881
:1015A000FFF782FCFFF73CF90C4B0D4919221A702A
:1015B0000C4B0D4A1A620D4A5A624032DA62996245
:1015C0000B4B15221A700B4A002313600A4A136052
:1015D0000A4A137008BD00BF77340000C4200740DA
:1015E000C80040000080FF1F88004000EC1500206C
:1015F000C82007406C1600207016002074160020CA
:1016000010B5074C2278022A06D1064B93F90C300C
:10161000002B01DBFFF78CFB0023237010BD00BF04
:1016200074160020C01500202DE9F0410468C4F3B1
:101630008307012F90B0054640F0DE80C4F30946D1
:1016400004F0400444F48004416844F088043246C5
:10165000684600F0CDF92C60724D2C7884B1022CD4
:1016600000F08680032C96BF6F4B704953F824100E
:101670006F48FFF719FC31466846FFF731FC71E00F
:101680001F2E34D16B4B009A9A4230D19DF80D3009
:101690001B072CD19DF80E3003F01F03013B0F2BCD
:1016A00025D8654B2F706A4606AF1E46144603CCFC
:1016B000BC4218605960224603F10803F6D1206845
:1016C0001860A188A2799A7199805C4BB17B5C48C3
:1016D0004FF00008C3F800805A4BC3F80080FFF7B2
:1016E00009F9002813DA5848FFF7DEFB0CE05748E9
:1016F000FFF7DAFB31466846FFF7F2FB0120FFF700
:1017000083FD0220FFF780FD0021012012E0504CF4
:101710002060B768B84219D096F90C30002B0CDB6A
:10172000B8420AD20120FFF76FFD0220FFF76CFDDF
:1017300041460220FFF7CEFE14E027B90220FFF752
:1017400063FD3946F5E74348FFF7AEFB216809B969
:101750000020EFE702232B7096F90C30002B01DA02
:10176000FFF7E2FE3C4B01221A7010B0BDE8F08199
:10177000DFF8C480334D98F90C30002B0ADA374873
:10178000FFF792FB3846FFF73FFD2046FFF73CFD91
:101790002968CEE72B683146334468462B60FFF753
:1017A00003FB90B12E48FFF77FFBFFF7C1FAD8F893
:1017B00008202B689A42044602D93846FFF724FDD8
:1017C000E143A142B8BF21469FE72B68D8F8082023
:1017D0009A4203D01E4A12689342C3D1FFF7A8FA77
:1017E000041E07DA1F48FFF75FFB0120FFF70CFD1F
:1017F000E1438AE72146ABE739461B48FFF754FB34
:101800002868C0F38300FFF7CBFB184800F0CEFB3D
:101810002B6803F0400343F4800343F088032B60FC
:10182000A0E700BF74160020B0360000B2340000FC
:10183000BE35000055534243C0150020BC150020A2
:10184000CF150020B8150020CD340000BA340000B8
:10185000B415002005350000942007403335000002
:101860006535000088350000DA350000442D0000A1
:1018700038B50368C3F38301092904463CD1244ADF
:101880001478022C06D030D9032C2BD0214B012206
:101890001A7038BD204DC3F30941180C2B68194448
:1018A0001E4B296093F90C20002A0DDB1C48FFF722
:1018B000FBFA0120FFF7A8FC2046FFF7A5FC2968EA
:1018C0002046FFF707FEE1E79B68994201D91548DA
:1018D000EDE701D10020F4E710F47070F1D0FFF7CC
:1018E00023FED3E700231370D0E70F4B0F4853F8C4
:1018F0002410FFF7D9FAC9E70D48FFF7D5FA206899
:10190000C0F38300FFF74CFB0A4800F04FFBBDE734
:101910007416002094200740BC150020C01500203C
:10192000F535000024360000B036000049360000CE
:1019300081360000442D000010B5204B204821497D
:1019400060221A70E1225A701F4B204A1C78204BEB
:10195000082C1AD101240460132008601460186058
:101960001C4B1D491B781D4A03B101230B601360FA
:101970001B4B1C4A19781C4B012911D8802111607E
:1019800019601A4B01221A7010BD0A2C01D139249A
:10199000E1E70C2C0CBF35243D2404601220DCE769
:1019A000042901D88421EAE7082901D88521E6E73E
:1019B000102994BF86218721E1E700BF004007403E
:1019C00008B003400CB003404284FF1F08B00B4036
:1019D0000CB00B407516002020B0034020B00B4027
:1019E0004384FF1F24B0034024B00B407616002030
:1019F000844641EA000313F003036DD1403A41D31A
:101A000051F8043B40F8043B51F8043B40F8043BD8
:101A100051F8043B40F8043B51F8043B40F8043BC8
:101A200051F8043B40F8043B51F8043B40F8043BB8
:101A300051F8043B40F8043B51F8043B40F8043BA8
:101A400051F8043B40F8043B51F8043B40F8043B98
:101A500051F8043B40F8043B51F8043B40F8043B88
:101A600051F8043B40F8043B51F8043B40F8043B78
:101A700051F8043B40F8043B51F8043B40F8043B68
:101A8000403ABDD2303211D351F8043B40F8043B08
:101A900051F8043B40F8043B51F8043B40F8043B48
:101AA00051F8043B40F8043B103AEDD20C3205D318
:101AB00051F8043B40F8043B043AF9D2043208D010
:101AC000D2071CBF11F8013B00F8013B01D30B8882
:101AD00003806046704700BF082A13D38B078DD060
:101AE00010F003038AD0C3F10403D21ADB071CBF32
:101AF00011F8013B00F8013B80D331F8023B20F89C
:101B0000023B7BE7043AD9D3013A11F8013B00F8D4
:101B1000013BF9D20B7803704B7843708B7883705C
:101B200060467047024A136801331360704700BF74
:101B30007816002008B50B4D2C462B68580301D5AC
:101B4000FFF7E8FA2368590501D500F0AFF92368DB
:101B50001A0501D500F008F82368DB04EDD500F084
:101B600003F8EAE73480044008B5FFF7E3FFFFFF1E
:101B7000014B10221A807047002005407047FFFF7C
:101B8000024A034610680344136070474484FF1FF1
:101B9000EFF31380A8B9EFF31082A2B9EFF3058336
:101BA00053B10F2B0BD9084A985CEFF3118353B153
:101BB000984228BF184670474FF48070F5E71046EA
:101BC000F3E74FF0FF307047F0E300E070B50446F4
:101BD00008460021B4FBF2F502FB1546F3B2092ECC
:101BE00094BF30333733DBB2A242435402D80131C1
:101BF0002C46EFE7431800225A70441E8D1AAA4261
:101C000000DB70BD14F8015F1E782670013203F806
:101C10000159F3E7044B054900221A600A60044A9F
:101C2000106010221A60704714D0034004D00340A3
:101C300000D0034072B60B4B0B4A0C491B6812686C
:101C4000096862B6490102D5322B88BF0132C3F55B
:101C50003B4330207F33B3FBF0F34FF47A7000FB4B
:101C60000230704718E000E07816002004ED00E034
:101C700038B50446FFF7DEFF05466CB1FFF7DAFF23
:101C8000401BB0F57A7F02D2FEF77EFCF6E7013CFE
:101C900002D005F57A75F1E738BDFFFF1F4B4FF411
:101CA000000210B51A604FF080721A604FF0007297
:101CB0001A604FF080621A604FF000621A60184B91
:101CC000184A194C00204BF6FF7118605960282300
:101CD0001360936013619361136293621363936360
:101CE0000922226004F58054043420606160A360FE
:101CF000236144F8042C04F5FE2420600B480160A5
:101D00000B490B608B600B4B1A60FFF715FEFA2036
:101D1000FFF7AEFFBDE81040FFF7B0B908E100E003
:101D2000048003400C8003400080034008800B4087
:101D30000C800B4000800B40224A136843F4806300
:101D40001360214A00231370204A1370204A137035
:101D5000204A1370204A1370204B1B7823B3152B95
:101D600027D01F4B1B78012B25D0052B28D01D4BCE
:101D7000C0F344321A70C0F347125A7000F01F00CB
:101D80000422022198729A70D9745A7588221A74A2
:101D90003C22DA70144B40221A706FF44A721344DA
:101DA0004FF400521A607047104B40F213321A6021
:101DB000D7E70F4BF9E70F4B4FF451721A60D6E794
:101DC0000D4BF9E734800440C0160020C1160020F6
:101DD000091700200A170020C8160020C21600208C
:101DE0004884FF1F00A006402DE400E040A004400E
:101DF00018C0044044A004401CC004402DE9F8432E
:101E00001F4B1B685A0505461DD51E4B1B680BB1A1
:101E100001221A701C4EDFF8809034781B4F013479
:101E2000402C28BF0024C84699F80030A3420CD0AB
:101E3000174BEDB21D55174B01221A70134BE4B22C
:101E4000BC223470DA70BDE8F883FFF7A1FE4028A9
:101E500010DC3B791B06E7D599F800300C4A0133BA
:101E6000402B28BF0023D25CDBB2D2B2FA7188F8D3
:101E70000030D9E7FF28D7DDFEF786FBD4E700BFA7
:101E800034800440C41600200917002000A006403A
:101E9000C9160020C81600200A17002000F00F0005
:101EA000092894BF30303730FFF7A8BFF0B5354967
:101EB0000B7913F0300F09D072B68B7D03F0FF045D
:101EC000002B38D1CB7940234B7462B62D4AD3789E
:101ED0001C06DDB21ED5137918061BD52A4B2B49DB
:101EE0001C780B782A4EE4B2DBB2A3420AD001334D
:101EF000402B28BF00231079F05CC0B2D071107D58
:101F00000728F2D9DBB20B701E4B1A79110644BFB9
:101F10007C22DA706A060DD51A4B1B795B0609D54F
:101F20001C4B00221A701C4B1B6803B11A70154B16
:101F30003C22DA70F0BD62B6184D194A2B7812783F
:101F4000184FDBB2D2B2581C4028CE7928BF0020EF
:101F50009042F6B21CBF3E540346601E10F0FF04D0
:101F6000F1D1D9B22970104909680029AED0934245
:101F700036BFC2F140029B1A9B18272BC4BF012316
:101F80000B70A3E700A00640091700200A170020E5
:101F9000C9160020C8160020C4160020C016002054
:101FA000C1160020801600207C16002038B5441E83
:101FB00014F8015F05B938BD0A2D02D10D20FFF7D5
:101FC0001DFF2846FFF71AFFF2E710B50446000987
:101FD000FFF764FF2046BDE81040FFF75FBF10B574
:101FE0000446000AFFF7F1FF2046BDE81040FFF766
:101FF000ECBFFFFF70B50D4D0D4C641BA410002607
:10200000A64209D10B4D0C4C01F0A4FB641BA4109B
:102010000026A64205D170BD55F8043B984701360D
:10202000EEE755F8043B98470136F2E760370000C9
:102030006037000060370000643700000244034648
:10204000934200D1704703F8011BF9E730B5141E25
:1020500005469BB0184605DA8B232B604FF0FF3006
:102060001BB030BD4FF40273ADF80C3014BF04F157
:10207000FF332346029305934FF6FF7300910491BB
:10208000ADF80E3002461E9B6946284600F0F4F873
:10209000431CBCBF8B232B60002CE1D0009B002293
:1020A0001A70DDE707B5009313460A460146034858
:1020B0000068FFF7CBFF03B05DF804FB4C84FF1F03
:1020C000F8B5CD1C25F0030508350C2D38BF0C25BF
:1020D000002D064601DBA94203D90C233360002002
:1020E000F8BD00F0D7FB21490A6814469CB9204F7F
:1020F0003B6823B92146304600F052FB3860294640
:10210000304600F04DFB431C23D10C233360304696
:1021100000F0C6FBE3E723685B1B17D40B2B03D946
:1021200023601C44256004E06368A2420CBF0B607E
:102130005360304600F0B4FB04F10B00231D20F087
:102140000700C21ACCD01B1AA350C9E72246646804
:10215000CCE7C41C24F00304A042E3D0211A30468B
:1021600000F01EFB0130DDD1CFE700BF0C170020CF
:1021700010170020F8B5074614460E4621B9BDE8F1
:10218000F8401146FFF79CBF22B900F08FFB2546AF
:102190002846F8BD00F0D8FBA0420FD221463846B1
:1021A000FFF78EFF05460028F2D031462246FFF7A2
:1021B0001FFC3146384600F079FBE9E73546E7E792
:1021C0002DE9F0478E689E4282460C4690461F4697
:1021D00038D88A8912F4906F32D025680969A5EB46
:1021E0000109656905EB450505EBD57501334B44E0
:1021F0006D109D4238BF1D46530531D52946FFF766
:102200005FFF064650B90C23CAF80030A38943F09B
:102210004003A3814FF0FF30BDE8F08721694A46B3
:10222000FFF7E6FBA38923F4906343F08003A381C7
:10223000266165614E44A5EB09052660A5603E4612
:10224000BE4200D93E4632462068414600F008FBB7
:10225000A36822689B1B3244A36022600020DBE756
:102260002A46FFF787FF06460028E1D1216950463C
:1022700000F01CFBC7E7FFFF2DE9F04F98468B8964
:102280001B069DB007460D4614460ED50B6963B973
:102290004021FFF715FF2860286120B90C233B601F
:1022A0004FF0FF30D1E040236B61002309932023DE
:1022B0008DF82930CDF80C803023DFF8A8818DF817
:1022C0002A304FF0010923469A4613F8012B0AB130
:1022D000252AF9D1BAEB040B0BD05B4622462946DE
:1022E0003846FFF76DFF013000F0AA80099A5A4482
:1022F00009929AF80030002B00F0A28000234FF0E2
:10230000FF32CDE905230AF1010A049307938DF802
:1023100053301A935446052214F8011B514800F01B
:102320004FFA049AD8B9D00644BF20238DF8533011
:10233000110744BF2B238DF853309AF800302A2B15
:1023400015D0079A544600204FF00A0C214611F888
:10235000013B303B092B4ED9B0B1079214E0A0EB02
:10236000080309FA03F313430493A246D2E7039B3D
:10237000191D1B680391002BBBBF5B4242F0020298
:1023800007930793B8BF049223782E2B0CD1637860
:102390002A2B35D1039B1A1D1B680392002BB8BF53
:1023A0004FF0FF3302340593DFF8C8A021780322F1
:1023B000504600F005FA40B14023A0EB0A0003FAB2
:1023C00000F0049B03430134049314F8011B2648D6
:1023D0008DF82810062200F0F3F9002838D0234B9E
:1023E0001BBB039B073323F0070308330393099BAD
:1023F0003344099367E70CFB02320C460120A5E742
:1024000000230134059319464FF00A0C204610F8BA
:10241000012B303A092A03D9002BC5D00591C3E717
:102420000CFB012104460123F0E703AB00932A468D
:102430000F4B04A93846AFF30080421C0646D6D1A4
:10244000AB895B063FF52CAF09981DB0BDE8F08F56
:1024500003AB00932A46064B04A9384600F07AF8ED
:10246000EBE700BFC0360000CA36000000000000E5
:10247000C1210000C63600002DE9F04716469946F6
:102480008A680B69DDF820809342B8BF1346336039
:1024900091F8432007460C460AB1013333602368A4
:1024A000990642BF336802333360256815F006058C
:1024B00006D104F1190AE36832689B1AAB4226DCA4
:1024C00094F84320131E226818BF012392062BD4D0
:1024D00004F1430249463846C04701301ED0236804
:1024E000E568326803F00603042B08BFAD1AA36841
:1024F00022690CBF25EAE57500259342C4BF9B1AEB
:10250000ED1800261A34B5421AD1002008E0012344
:10251000524649463846C047013003D14FF0FF309C
:10252000BDE8F0870135C6E7E1185A1C302081F874
:102530004300224494F8451082F843100233C7E761
:102540000123224649463846C0470130E6D00136CD
:10255000D9E7FFFF2DE9FF470C469146277E0C99EE
:10256000782F80469A4604F1430207D8622F0AD892
:10257000002F00F0D880582F00F0A38004F142060D
:1025800084F842703AE0A7F16303152BF6D801A056
:1025900050F823F0ED250000012600007D25000005
:1025A0007D2500007D2500007D250000012600001E
:1025B0007D2500007D2500007D2500007D25000093
:1025C0000D27000031260000EF2600007D250000C9
:1025D0007D2500002F2700007D250000312600000A
:1025E0007D2500007D250000F72600000B681A1DE0
:1025F0001B680A6004F1420684F842300123A3E01C
:10260000256808682E0600F104030AD505680B60EA
:10261000002D03DA2D236D4284F843305E480A23EF
:1026200019E015F0400F05680B6018BF2DB2EFE7F9
:102630000B682568181D0860280601D51D6802E092
:102640006906FBD51D8854486F2F0CBF08230A2349
:10265000002184F843106668A660002EA2BF21689E
:1026600021F0040121600DB9002E4DD01646B5FBB6
:10267000F3F103FB1157C75D06F8017D2F46BB42FE
:102680000D46F4D9082B0BD12368DF0708D5236941
:1026900061689942DEBF302306F8013C06F1FF363F
:1026A000921B2261CDF800A04B4603AA214640466A
:1026B000FFF7E2FE01304CD14FF0FF3004B0BDE82F
:1026C000F087354884F8457023680E681F0656F871
:1026D000045B0E6014D5D90744BF43F02003236088
:1026E0001DB9236823F0200323601023B0E723687B
:1026F00043F0200323607823284884F84530E3E73B
:102700005E0648BFADB2E6E71646BBE70B68266833
:1027100060691D1D0D6035061B6801D5186002E05B
:102720007106FBD51880002323611646BAE70B68B3
:102730001A1D0A601E6862680021304600F040F8E9
:1027400008B1801B606063682361002384F8433014
:10275000A8E72369324649464046D0470130ABD00E
:1027600023689B0713D4E068039B9842B8BF1846C0
:10277000A4E70123324649464046D04701309BD06A
:102780000135E36803995B1AAB42F2DCEBE7002505
:1027900004F11906F5E700BFD1360000E23600006B
:1027A00038B5064D0023044608462B60FFF7E8F9CC
:1027B000431C02D12B6803B1236038BD14170020DD
:1027C00001F0FF01102A2BDB10F0070F08D010F8E2
:1027D000013B013A8B422DD010F0070F42B3F6D1E6
:1027E000F0B441EA012141EA014122F007047FF0FF
:1027F00000070023F0E80256083C85EA010586EA56
:10280000010685FA47F5A3FA87F586FA47F6A5FA91
:1028100087F68EB9EED1F0BC01F0FF0102F007029D
:1028200032B110F8013B013A83EA010313B1F8D148
:102830000020704701387047002D06BF3546033829
:10284000073815F0010F07D1013015F4807F02BF62
:10285000013015F4C03F0130F0BC0138704700BFB3
:10286000884210B501EB020402D98442234607D8FE
:10287000431EA14208D011F8012B03F8012FF8E7FD
:10288000024401468A4200D110BD13F8014D02F8FE
:10289000014DF7E7014800F05FB800BF1C170020AA
:1028A000014800F05AB800BF1C17002038B5054693
:1028B000002945D051F8043C0C1F002BB8BFE41888
:1028C000FFF7E8FF1F4A1368104633B963601460CE
:1028D0002846BDE83840FFF7E3BFA3420BD9216883
:1028E0006218934204BF1A685B68636004BF5218A1
:1028F00022600460ECE71A465B680BB1A342FAD988
:1029000011685018A0420BD120680144501883422E
:102910001160DDD118685B68536001441160D7E72E
:1029200002D90C232B60D3E7206821188B4204BF07
:1029300019685B68636004BF091821605460C7E7C9
:1029400038BD00BF0C17002051F8043C181F002BA5
:10295000BCBF0B58C0187047704770472D2D2046DC
:1029600041554C54202D2D2D2D2D2D2D2D2D2D2D22
:102970002D2D2D2D2D2D2D2D2D2D2D2D2D2D2D2D87
:102980002D2D2D2D2D2D2D2D2D2D2D2D2D2D2D2D77
:102990002D2D2D2D2D2D2D2D2D2D2D002020425571
:1029A00053204641554C543A20004661756C7420C2
:1029B0006F6E20657863657074696F6E20656E74E4
:1029C0007279004661756C74206F6E20657863655E
:1029D0007074696F6E2072657475726E00496D70E7
:1029E0007265636973652064617461206163636506
:1029F0007373206572726F720050726563697365DC
:102A00002064617461206163636573206572726F15
:102A100072004661756C74206F6E20696E737472FB
:102A2000756374696F6E20707265666574636800A3
:102A30002042464152282530387829002020202085
:102A40007230202530387800202020207231202557
:102A5000303878002020202072322025303878004D
:102A6000202020207233202530387800202020724A
:102A70003132202530387800202020206C7220252B
:102A800030387800202020207063202530387800EE
:102A9000202078707372202530387800494E464FD8
:102AA0002020534353492052454144202025346877
:102AB0007520626C6F636B73207374617274696EDE
:102AC00067206174206C6261203078253038780A84
:102AD00000435249544943414C205F6C62615F6F2F
:102AE0006666736574203E20626C6F636B5F636F14
:102AF000756E743A20686F7720646964207765206A
:102B000067657420686572653F0A004552524F52EE
:102B10002072656164696E67206C6261203078257F
:102B20003038780A00494E464F20205343534920FD
:102B300057524954452025687520626C6F636B734A
:102B4000207374617274696E67206174206C6261B5
:102B5000203078253038780A005741524E202060C6
:102B6000696F5F7265616460206E6F6E20626C6F6A
:102B7000636B2073697A65202835313242292062DF
:102B8000797465733A2025750A004552524F5220D8
:102B90006661696C656420746F2077726974652062
:102BA0006C6261203078253038780A00494E464FF3
:102BB00020204D6178204C424120307825303878F3
:102BC0000A00494E464F2020426C6F636B205369C8
:102BD0007A652025752028307825303478292062C0
:102BE000797465730A00494E464F202053697A650F
:102BF000202575202830782530387829206279748E
:102C000065730A00494E464F20204C554E20302017
:102C100020307825782028257520626C6F636B73CF
:102C2000290A00494E464F2020696E697469616C1B
:102C3000697A696E672074686520666C6578696278
:102C40006C652064617461206D6F646520706167DC
:102C5000650A004552524F52206364622069732016
:102C60004E554C4C0A004552524F5220696E7661C7
:102C70006C6964206364622072656369657665646B
:102C80000A00494E464F20205343534920464F5295
:102C90004D415420554E49540A00494E464F20207C
:102CA0005343534920494E51554952590A00494E00
:102CB000464F202053435349204C4F414420554E0A
:102CC0004C4F41440A00494E464F2020534353493C
:102CD000204D4F44452053454E5345202836290A60
:102CE000004552524F5220756E737570706F72743A
:102CF00065642070616765636F64652F73756270CA
:102D000061676520726571756573746564203078DC
:102D1000253032782F30783032780A00494E464FCD
:102D20002020534353492050524556454E5420418C
:102D30004C4C4F57204D454449554D2052454D4F21
:102D400056414C200A00494E464F202053435349D8
:102D50002052454144204341504143495459202881
:102D60003130290A004552524F5220504D492073AC
:102D700065742C2063616E6E6F742068616E646C84
:102D8000650A00494E464F2020534353492052457F
:102D9000414420464F524D41542043415041434904
:102DA000544945530A00494E464F20205343534946
:102DB000205245504F5254204C554E530A00494E14
:102DC000464F2020534353492052455155455354B3
:102DD0002053454E53450A004552524F52206465D8
:102DE0007363726970746F722073656E73652064AB
:102DF000617461207265717565737465642C2063FC
:102E0000616E6E6F742068616E646C650A00494E75
:102E1000464F2020534353492053454E44204449B4
:102E200041474E4F535449430A00494E464F2020D4
:102E300053435349205445535420554E495420522E
:102E4000454144590A004552524F5220756E7375E0
:102E500070706F727465642053435349206F7063C0
:102E60006F6465203078253032780A004352495427
:102E70004943414C2060736373695F73645F6461AD
:102E800074615F6F7574602063616C6C656420773A
:102E900069746820494E206364620A0043524954B1
:102EA0004943414C206275666665722066696C6CA8
:102EB0006564206279206E6F6E2072656164206F98
:102EC00070636F64653A2030782530326868780A1C
:102ED000004552524F52206661696C656420746FE0
:102EE00020726566696C6C20746865206275666620
:102EF00065720A00435249544943414C2060736350
:102F000073695F73645F646174615F696E5F636F4F
:102F10006D6D6974602063616C6C656420776974A1
:102F200068204F5554206364620A004552524F5244
:102F3000207772697465362F3130206661696C655F
:102F4000640A00435249544943414C2060736373FF
:102F5000695F73645F646174615F696E602063615F
:102F60006C6C6564207769746820616E204F5554DD
:102F7000206F70636F64653A20307825303268685E
:102F8000780A00435249544943414C2062756666B1
:102F900065722069732066756C6C3F3F3F3F3F3F11
:102FA0003F3F3F3F0A004552524F52206661696CD5
:102FB000656420746F20636F6D6D69742066756C35
:102FC0006C2062756666657220746F20736420637E
:102FD0006172640A00008000011F000000546565F2
:102FE0006E73792020555342204D4943524F205350
:102FF00044202020204D53443100000001000000F7
:10300000000000000000000000494E464F202072E2
:103010006561642066726F6D20253034780A00493E
:103020004E464F2020777269746520746F202530DA
:1030300034780A002E2E2E003030303020200075DB
:103040006E6B6E6F776E005049445F4F5554005061
:1030500049445F41434B005049445F44415441302F
:10306000005049445F534F46005049445F4E594514
:1030700054005049445F4441544132005049445F38
:10308000494E005049445F4E414B005049445F4413
:1030900041544131005049445F534554555000500C
:1030A00049445F5354414C4C005049445F4D4441A6
:1030B00054410044455649434520202000494E5480
:1030C00045524641434500454E44504F494E5420D9
:1030D000004F5448455220202020004745545F535C
:1030E00054415455532020202020202020202020EF
:1030F00000434C4541525F464541545552452020BE
:10310000202020202020005345545F46454154553F
:1031100052452020202020202020202000534554EC
:103120005F4144445245535320202020202020203A
:103130002020004745545F44455343524950544F63
:103140005220202020202020005345545F44455326
:1031500043524950544F5220202020202020004725
:1031600045545F434F4E46494755524154494F4E8F
:1031700020202020005345545F434F4E4649475579
:10318000524154494F4E20202020004745545F496A
:103190004E544552464143452020202020202020E7
:1031A000005345545F494E54455246414345202003
:1031B0002020202020200053594E435F4652414D8D
:1031C000452020202020202020202020005345546E
:1031D0005F53454C2020202020202020202020202C
:1031E0002020005345545F49534F4348524F4E4FA0
:1031F00055535F44454C415900FFFFFF47300000E5
:103200004F300000573000003F30000061300000B8
:1032100069300000723000003F3000007C30000058
:10322000833000008B3000003F30000095300000FC
:103230009F300000A930000000010000ED83FF1F57
:103240001200000000020000CD83FF1F20000000DC
:10325000000300000084FF1F0000000001030904B8
:103260000484FF1F00000000020309041C84FF1FE8
:1032700000000000030309042C84FF1F000000006D
:103280000000000000000000000000004552524F06
:103290005220627920616C6C2072696768747320B7
:1032A00077652073686F756C646E27742062652083
:1032B000686572650A00494E464F20202D3D2D3D20
:1032C0002D3D2D3D2D3D2D3D2D3D2D3D2D3D2D3DAE
:1032D0002D3D2D3D2D3D2D3D2D3D2D3D2D3D2D3D9E
:1032E0002D3D2D3D2D3D2D3D2D3D2D3D2D3D2D3D8E
:1032F0002D3D2D3D2D3D2D3D2D3D2D0A00494E46A8
:103300004F20205553422052455345540A00435202
:1033100049544943414C20757362206572726F7243
:10332000207374617475733A20307825780A0049E7
:103330004E464F20207374616C6C696E6720656E19
:1033400064706F696E7420256868640A0045525283
:103350004F5220726563696576656420756E73757A
:1033600070706F727465642073657475702070611D
:10337000636B6574206F6620747970653A203078CD
:1033800025303468780A004552524F5220756E68D5
:10339000616E646C6564207069642030782568789B
:1033A0000A00FFFF2D12000029160000711800000E
:1033B0007110000071100000711000007110000009
:1033C00071100000711000007110000071100000F9
:1033D00071100000711000007110000071100000E9
:1033E000711000004552524F522064617461207484
:1033F0006F6F206C617267650A00494E464F20204E
:103400004353572E64435357446174615265736943
:10341000647565206973206E6F7420303A203078AF
:1034200025780A004552524F522044415441204FC2
:1034300055542070686173650A00494E464F20203C
:10344000736373695F73642072657475726E65640B
:10345000206D6F72652064617461207468616E20F4
:10346000746865204342572F686F737420657870C5
:1034700065637465640A00494E464F2020696E6991
:103480007469616C697A696E672074686520656E1D
:1034900064706F696E747320666F72207468652043
:1034A0006D6963726F7364206261636B206D736416
:1034B0000A00554E4B4E4F574E004552524F522028
:1034C000696E76616C6964206362770A00455252C6
:1034D0004F522072657475726E656420666F72203B
:1034E0004344422C2073656E64696E6720435357D2
:1034F0002077697468206661696C65642073746103
:103500007475730A00494E464F2020686F7374200B
:10351000616E6420646576696365206469736167C0
:10352000726565206F6E206279746520636F756EB9
:10353000740A00435249544943414C205258696E21
:103540006720696E20444154412070686173652092
:103550007768696C652043425720646972206973FB
:1035600020494E0A004552524F52207772697469C1
:103570006E6720627974657320746F20736373695A
:103580005F736420494E0A004552524F52206661D3
:10359000696C656420746F20636F6D6D697420734E
:1035A0006373695F7364204441544120494E2C2069
:1035B0007374616C6C696E67206570310A004552E6
:1035C000524F52205049445F4F555420696E20732A
:1035D000746174653A2025730A005741524E2020C9
:1035E000756E68616E646C65642070696420307803
:1035F0002568780A00435249544943414C204342CC
:1036000057207769746820646972204F555420549C
:1036100058696E6720696E20444154415F504841AB
:1036200053450A00435249544943414C20646F6E4C
:103630002774206B6E6F7720686F7720776520671F
:103640006F7420686572650A004552524F522072AD
:1036500065636965766564205049445F494E20532F
:10366000554343455353206F6E2065703220776871
:10367000696C6520696E2025732070686173650A26
:10368000005741524E2020756E68616E646C65640F
:103690002070696420307868780A004E4F4E4500EB
:1036A000434F4D4D414E440053544154555300FF38
:1036B0009B360000A0360000AE300000A8360000A7
:1036C000232D302B2000686C4C006566674546470B
:1036D000003031323334353637383941424344458E
:1036E00046003031323334353637383961626364FD
:1036F000656600FF00000000000000000000000000
:1037000000000000000000000000000000000000B9
:1037100000000000000000000000000000000000A9
:103720000000000000000000000000000000000099
:103730000000000000000000000000000000000089
:103740000000000000000000000000000000000079
:1037500000000000F8B500BFF8BC08BC9E467047EA
:04376000350400002C
:04376400F8B500BFF5
:10376800000000000000000A000000000000000047
:10377800000902200001010080320904000002084B
:1037880006500007050102400000070582024000BC
:10379800001201000200000040C01684040100016C
:1037A80002030100040309041803540065006500BE
:1037B8006E00730079006400750069006E006F0088
:1037C800100355005300420020004D0053004400F0
:1037D8000C030000000000000000000000000000D2
:1037E8000000000000000A04241700200100000067
:1037F8005084FF1F00000000143700003437000019
:10380800F436000000000000000000000000000086
:1038180000000000000000000000000000000000A0
:103828000000000000000000000000000000000090
:103838000000000000000000000000000000000080
:103848000000000000000000000000000000000070
:04385800000000006C
:00000001FF
